{
  "_format": "hh-sol-artifact-1",
  "contractName": "ArtMarketplace",
  "sourceName": "contracts/ArtMarketplace.sol",
  "abi": [
    {
      "inputs": [
        {
          "internalType": "address",
          "name": "_paymentToken",
          "type": "address"
        },
        {
          "internalType": "address",
          "name": "_nftContract",
          "type": "address"
        }
      ],
      "stateMutability": "nonpayable",
      "type": "constructor"
    },
    {
      "inputs": [
        {
          "internalType": "address",
          "name": "owner",
          "type": "address"
        }
      ],
      "name": "OwnableInvalidOwner",
      "type": "error"
    },
    {
      "inputs": [
        {
          "internalType": "address",
          "name": "account",
          "type": "address"
        }
      ],
      "name": "OwnableUnauthorizedAccount",
      "type": "error"
    },
    {
      "anonymous": false,
      "inputs": [
        {
          "indexed": true,
          "internalType": "uint256",
          "name": "tokenId",
          "type": "uint256"
        },
        {
          "indexed": true,
          "internalType": "address",
          "name": "seller",
          "type": "address"
        }
      ],
      "name": "ListingCanceled",
      "type": "event"
    },
    {
      "anonymous": false,
      "inputs": [
        {
          "indexed": true,
          "internalType": "uint256",
          "name": "tokenId",
          "type": "uint256"
        },
        {
          "indexed": true,
          "internalType": "address",
          "name": "seller",
          "type": "address"
        },
        {
          "indexed": false,
          "internalType": "uint256",
          "name": "price",
          "type": "uint256"
        }
      ],
      "name": "NFTListed",
      "type": "event"
    },
    {
      "anonymous": false,
      "inputs": [
        {
          "indexed": true,
          "internalType": "uint256",
          "name": "tokenId",
          "type": "uint256"
        },
        {
          "indexed": true,
          "internalType": "address",
          "name": "buyer",
          "type": "address"
        },
        {
          "indexed": false,
          "internalType": "uint256",
          "name": "price",
          "type": "uint256"
        }
      ],
      "name": "NFTSold",
      "type": "event"
    },
    {
      "anonymous": false,
      "inputs": [
        {
          "indexed": true,
          "internalType": "address",
          "name": "previousOwner",
          "type": "address"
        },
        {
          "indexed": true,
          "internalType": "address",
          "name": "newOwner",
          "type": "address"
        }
      ],
      "name": "OwnershipTransferred",
      "type": "event"
    },
    {
      "inputs": [
        {
          "internalType": "uint256",
          "name": "_tokenId",
          "type": "uint256"
        }
      ],
      "name": "buyNFT",
      "outputs": [],
      "stateMutability": "nonpayable",
      "type": "function"
    },
    {
      "inputs": [
        {
          "internalType": "uint256",
          "name": "_tokenId",
          "type": "uint256"
        },
        {
          "internalType": "uint256",
          "name": "_price",
          "type": "uint256"
        }
      ],
      "name": "listNFT",
      "outputs": [],
      "stateMutability": "nonpayable",
      "type": "function"
    },
    {
      "inputs": [
        {
          "internalType": "uint256",
          "name": "",
          "type": "uint256"
        }
      ],
      "name": "listings",
      "outputs": [
        {
          "internalType": "uint256",
          "name": "tokenId",
          "type": "uint256"
        },
        {
          "internalType": "address",
          "name": "seller",
          "type": "address"
        },
        {
          "internalType": "uint256",
          "name": "price",
          "type": "uint256"
        },
        {
          "internalType": "bool",
          "name": "isActive",
          "type": "bool"
        }
      ],
      "stateMutability": "view",
      "type": "function"
    },
    {
      "inputs": [],
      "name": "marketplaceFeePercent",
      "outputs": [
        {
          "internalType": "uint256",
          "name": "",
          "type": "uint256"
        }
      ],
      "stateMutability": "view",
      "type": "function"
    },
    {
      "inputs": [],
      "name": "nftContract",
      "outputs": [
        {
          "internalType": "contract IERC721",
          "name": "",
          "type": "address"
        }
      ],
      "stateMutability": "view",
      "type": "function"
    },
    {
      "inputs": [],
      "name": "owner",
      "outputs": [
        {
          "internalType": "address",
          "name": "",
          "type": "address"
        }
      ],
      "stateMutability": "view",
      "type": "function"
    },
    {
      "inputs": [],
      "name": "paymentToken",
      "outputs": [
        {
          "internalType": "contract IERC20",
          "name": "",
          "type": "address"
        }
      ],
      "stateMutability": "view",
      "type": "function"
    },
    {
      "inputs": [],
      "name": "renounceOwnership",
      "outputs": [],
      "stateMutability": "nonpayable",
      "type": "function"
    },
    {
      "inputs": [
        {
          "internalType": "uint256",
          "name": "_newFee",
          "type": "uint256"
        }
      ],
      "name": "setFeePercent",
      "outputs": [],
      "stateMutability": "nonpayable",
      "type": "function"
    },
    {
      "inputs": [
        {
          "internalType": "address",
          "name": "newOwner",
          "type": "address"
        }
      ],
      "name": "transferOwnership",
      "outputs": [],
      "stateMutability": "nonpayable",
      "type": "function"
    },
    {
      "inputs": [],
      "name": "withdrawFees",
      "outputs": [],
      "stateMutability": "nonpayable",
      "type": "function"
    }
  ],
  "bytecode": "0x60806040526002600355348015610014575f80fd5b50604051610dac380380610dac833981016040819052610033916100fd565b338061005857604051631e4fbdf760e01b81525f600482015260240160405180910390fd5b61006181610093565b50600180546001600160a01b039384166001600160a01b0319918216179091556002805492909316911617905561012e565b5f80546001600160a01b038381166001600160a01b0319831681178455604051919092169283917f8be0079c531659141344cd1fd0a4f28419497f9722a3daafe3b4186f6b6457e09190a35050565b80516001600160a01b03811681146100f8575f80fd5b919050565b5f806040838503121561010e575f80fd5b610117836100e2565b9150610125602084016100e2565b90509250929050565b610c718061013b5f395ff3fe608060405234801561000f575f80fd5b50600436106100a6575f3560e01c80637ce3489b1161006e5780637ce3489b146101165780638da5cb5b1461012957806394383f1414610139578063d56d229d1461014c578063de74e57b1461015f578063f2fde38b146101ca575f80fd5b80633013ce29146100aa57806338d73b0d146100da578063476343ee146100f157806351ed8288146100fb578063715018a61461010e575b5f80fd5b6001546100bd906001600160a01b031681565b6040516001600160a01b0390911681526020015b60405180910390f35b6100e360035481565b6040519081526020016100d1565b6100f96101dd565b005b6100f9610109366004610aee565b6102e6565b6100f96106e8565b6100f9610124366004610aee565b6106fb565b5f546001600160a01b03166100bd565b6100f9610147366004610b05565b61074f565b6002546100bd906001600160a01b031681565b6101a061016d366004610aee565b60046020525f9081526040902080546001820154600283015460039093015491926001600160a01b039091169160ff1684565b604080519485526001600160a01b03909316602085015291830152151560608201526080016100d1565b6100f96101d8366004610b39565b610a36565b6101e5610a73565b6001546040516370a0823160e01b81523060048201525f916001600160a01b0316906370a0823190602401602060405180830381865afa15801561022b573d5f803e3d5ffd5b505050506040513d601f19601f8201168201806040525081019061024f9190610b5b565b6001549091506001600160a01b031663a9059cbb6102745f546001600160a01b031690565b6040516001600160e01b031960e084901b1681526001600160a01b039091166004820152602481018490526044016020604051808303815f875af11580156102be573d5f803e3d5ffd5b505050506040513d601f19601f820116820180604052508101906102e29190610b72565b5050565b5f818152600460205260409020600381015460ff166103435760405162461bcd60e51b8152602060048201526014602482015273109d48139195081cd85d1a5cdd1848191959da5b60621b60448201526064015b60405180910390fd5b60028101546001546040516370a0823160e01b81523360048201526001600160a01b03909116906370a0823190602401602060405180830381865afa15801561038e573d5f803e3d5ffd5b505050506040513d601f19601f820116820180604052508101906103b29190610b5b565b10156103f25760405162461bcd60e51b815260206004820152600f60248201526e596574657273697a2062616b69796560881b604482015260640161033a565b6003808201805460ff191690555460028201545f916064916104149190610ba5565b61041e9190610bc2565b600280549084015460405163152a902d60e11b81529293505f9283926001600160a01b031691632a55205a91610461918991600401918252602082015260400190565b6040805180830381865afa15801561047b573d5f803e3d5ffd5b505050506040513d601f19601f8201168201806040525081019061049f9190610be1565b915091505f818486600201546104b59190610c0d565b6104bf9190610c0d565b60015460028701546040516323b872dd60e01b815233600482015230602482015260448101919091529192506001600160a01b0316906323b872dd906064016020604051808303815f875af115801561051a573d5f803e3d5ffd5b505050506040513d601f19601f8201168201806040525081019061053e9190610b72565b50600180549086015460405163a9059cbb60e01b81526001600160a01b0391821660048201526024810184905291169063a9059cbb906044016020604051808303815f875af1158015610593573d5f803e3d5ffd5b505050506040513d601f19601f820116820180604052508101906105b79190610b72565b5060015460405163a9059cbb60e01b81526001600160a01b038581166004830152602482018590529091169063a9059cbb906044016020604051808303815f875af1158015610608573d5f803e3d5ffd5b505050506040513d601f19601f8201168201806040525081019061062c9190610b72565b506002546001860154604051632142170760e11b81526001600160a01b039182166004820152336024820152604481018990529116906342842e0e906064015f604051808303815f87803b158015610682575f80fd5b505af1158015610694573d5f803e3d5ffd5b50505050336001600160a01b0316867f6329e40c0365262ebbff5ca819385c2b9713dcaa050ed07866d72c441395699a87600201546040516106d891815260200190565b60405180910390a3505050505050565b6106f0610a73565b6106f95f610a9f565b565b610703610a73565b600a81111561074a5760405162461bcd60e51b81526020600482015260136024820152724b6f6d6973796f6e20636f6b2079756b73656b60681b604482015260640161033a565b600355565b5f811161079e5760405162461bcd60e51b815260206004820152601b60248201527f466979617420736966697264616e20627579756b206f6c6d616c690000000000604482015260640161033a565b6002546040516331a9108f60e11b81526004810184905233916001600160a01b031690636352211e90602401602060405180830381865afa1580156107e5573d5f803e3d5ffd5b505050506040513d601f19601f820116820180604052508101906108099190610c20565b6001600160a01b0316146108575760405162461bcd60e51b8152602060048201526015602482015274109d48139195081cda5e9948185a5d08191959da5b605a1b604482015260640161033a565b60025460405163020604bf60e21b81526004810184905230916001600160a01b03169063081812fc90602401602060405180830381865afa15801561089e573d5f803e3d5ffd5b505050506040513d601f19601f820116820180604052508101906108c29190610c20565b6001600160a01b03161480610942575060025460405163e985e9c560e01b81523360048201523060248201526001600160a01b039091169063e985e9c590604401602060405180830381865afa15801561091e573d5f803e3d5ffd5b505050506040513d601f19601f820116820180604052508101906109429190610b72565b61098e5760405162461bcd60e51b815260206004820152601d60248201527f4d61726b6574706c616365207965746b696c656e646972696c6d656469000000604482015260640161033a565b604080516080810182528381523360208083018281528385018681526001606086018181525f8a81526004865288902096518755925190860180546001600160a01b0319166001600160a01b03909216919091179055516002850155516003909301805460ff191693151593909317909255915183815284917f5f9c03de076f5063cd3ebcfe8ef7aa8af378e4b35a83c77ba9777e97083879a2910160405180910390a35050565b610a3e610a73565b6001600160a01b038116610a6757604051631e4fbdf760e01b81525f600482015260240161033a565b610a7081610a9f565b50565b5f546001600160a01b031633146106f95760405163118cdaa760e01b815233600482015260240161033a565b5f80546001600160a01b038381166001600160a01b0319831681178455604051919092169283917f8be0079c531659141344cd1fd0a4f28419497f9722a3daafe3b4186f6b6457e09190a35050565b5f60208284031215610afe575f80fd5b5035919050565b5f8060408385031215610b16575f80fd5b50508035926020909101359150565b6001600160a01b0381168114610a70575f80fd5b5f60208284031215610b49575f80fd5b8135610b5481610b25565b9392505050565b5f60208284031215610b6b575f80fd5b5051919050565b5f60208284031215610b82575f80fd5b81518015158114610b54575f80fd5b634e487b7160e01b5f52601160045260245ffd5b8082028115828204841417610bbc57610bbc610b91565b92915050565b5f82610bdc57634e487b7160e01b5f52601260045260245ffd5b500490565b5f8060408385031215610bf2575f80fd5b8251610bfd81610b25565b6020939093015192949293505050565b81810381811115610bbc57610bbc610b91565b5f60208284031215610c30575f80fd5b8151610b5481610b2556fea264697066735822122011a5af5a6e6141b45a2ce567b321e3f0a1d787a237cb3b5d33c585460677429d64736f6c63430008180033",
  "linkReferences": {},
  "deployedLinkReferences": {}
}