{
  "_format": "hh-sol-artifact-1",
  "contractName": "ArtNFT",
  "sourceName": "contracts/ArtNFT.sol",
  "abi": [
    {
      "inputs": [],
      "stateMutability": "nonpayable",
      "type": "constructor"
    },
    {
      "inputs": [
        {
          "internalType": "uint256",
          "name": "numerator",
          "type": "uint256"
        },
        {
          "internalType": "uint256",
          "name": "denominator",
          "type": "uint256"
        }
      ],
      "name": "ERC2981InvalidDefaultRoyalty",
      "type": "error"
    },
    {
      "inputs": [
        {
          "internalType": "address",
          "name": "receiver",
          "type": "address"
        }
      ],
      "name": "ERC2981InvalidDefaultRoyaltyReceiver",
      "type": "error"
    },
    {
      "inputs": [
        {
          "internalType": "uint256",
          "name": "tokenId",
          "type": "uint256"
        },
        {
          "internalType": "uint256",
          "name": "numerator",
          "type": "uint256"
        },
        {
          "internalType": "uint256",
          "name": "denominator",
          "type": "uint256"
        }
      ],
      "name": "ERC2981InvalidTokenRoyalty",
      "type": "error"
    },
    {
      "inputs": [
        {
          "internalType": "uint256",
          "name": "tokenId",
          "type": "uint256"
        },
        {
          "internalType": "address",
          "name": "receiver",
          "type": "address"
        }
      ],
      "name": "ERC2981InvalidTokenRoyaltyReceiver",
      "type": "error"
    },
    {
      "inputs": [],
      "name": "ERC721EnumerableForbiddenBatchMint",
      "type": "error"
    },
    {
      "inputs": [
        {
          "internalType": "address",
          "name": "sender",
          "type": "address"
        },
        {
          "internalType": "uint256",
          "name": "tokenId",
          "type": "uint256"
        },
        {
          "internalType": "address",
          "name": "owner",
          "type": "address"
        }
      ],
      "name": "ERC721IncorrectOwner",
      "type": "error"
    },
    {
      "inputs": [
        {
          "internalType": "address",
          "name": "operator",
          "type": "address"
        },
        {
          "internalType": "uint256",
          "name": "tokenId",
          "type": "uint256"
        }
      ],
      "name": "ERC721InsufficientApproval",
      "type": "error"
    },
    {
      "inputs": [
        {
          "internalType": "address",
          "name": "approver",
          "type": "address"
        }
      ],
      "name": "ERC721InvalidApprover",
      "type": "error"
    },
    {
      "inputs": [
        {
          "internalType": "address",
          "name": "operator",
          "type": "address"
        }
      ],
      "name": "ERC721InvalidOperator",
      "type": "error"
    },
    {
      "inputs": [
        {
          "internalType": "address",
          "name": "owner",
          "type": "address"
        }
      ],
      "name": "ERC721InvalidOwner",
      "type": "error"
    },
    {
      "inputs": [
        {
          "internalType": "address",
          "name": "receiver",
          "type": "address"
        }
      ],
      "name": "ERC721InvalidReceiver",
      "type": "error"
    },
    {
      "inputs": [
        {
          "internalType": "address",
          "name": "sender",
          "type": "address"
        }
      ],
      "name": "ERC721InvalidSender",
      "type": "error"
    },
    {
      "inputs": [
        {
          "internalType": "uint256",
          "name": "tokenId",
          "type": "uint256"
        }
      ],
      "name": "ERC721NonexistentToken",
      "type": "error"
    },
    {
      "inputs": [
        {
          "internalType": "address",
          "name": "owner",
          "type": "address"
        },
        {
          "internalType": "uint256",
          "name": "index",
          "type": "uint256"
        }
      ],
      "name": "ERC721OutOfBoundsIndex",
      "type": "error"
    },
    {
      "inputs": [
        {
          "internalType": "address",
          "name": "owner",
          "type": "address"
        }
      ],
      "name": "OwnableInvalidOwner",
      "type": "error"
    },
    {
      "inputs": [
        {
          "internalType": "address",
          "name": "account",
          "type": "address"
        }
      ],
      "name": "OwnableUnauthorizedAccount",
      "type": "error"
    },
    {
      "anonymous": false,
      "inputs": [
        {
          "indexed": true,
          "internalType": "address",
          "name": "owner",
          "type": "address"
        },
        {
          "indexed": true,
          "internalType": "address",
          "name": "approved",
          "type": "address"
        },
        {
          "indexed": true,
          "internalType": "uint256",
          "name": "tokenId",
          "type": "uint256"
        }
      ],
      "name": "Approval",
      "type": "event"
    },
    {
      "anonymous": false,
      "inputs": [
        {
          "indexed": true,
          "internalType": "address",
          "name": "owner",
          "type": "address"
        },
        {
          "indexed": true,
          "internalType": "address",
          "name": "operator",
          "type": "address"
        },
        {
          "indexed": false,
          "internalType": "bool",
          "name": "approved",
          "type": "bool"
        }
      ],
      "name": "ApprovalForAll",
      "type": "event"
    },
    {
      "anonymous": false,
      "inputs": [
        {
          "indexed": false,
          "internalType": "uint256",
          "name": "_fromTokenId",
          "type": "uint256"
        },
        {
          "indexed": false,
          "internalType": "uint256",
          "name": "_toTokenId",
          "type": "uint256"
        }
      ],
      "name": "BatchMetadataUpdate",
      "type": "event"
    },
    {
      "anonymous": false,
      "inputs": [
        {
          "indexed": false,
          "internalType": "uint256",
          "name": "_tokenId",
          "type": "uint256"
        }
      ],
      "name": "MetadataUpdate",
      "type": "event"
    },
    {
      "anonymous": false,
      "inputs": [
        {
          "indexed": true,
          "internalType": "address",
          "name": "previousOwner",
          "type": "address"
        },
        {
          "indexed": true,
          "internalType": "address",
          "name": "newOwner",
          "type": "address"
        }
      ],
      "name": "OwnershipTransferred",
      "type": "event"
    },
    {
      "anonymous": false,
      "inputs": [
        {
          "indexed": true,
          "internalType": "address",
          "name": "from",
          "type": "address"
        },
        {
          "indexed": true,
          "internalType": "address",
          "name": "to",
          "type": "address"
        },
        {
          "indexed": true,
          "internalType": "uint256",
          "name": "tokenId",
          "type": "uint256"
        }
      ],
      "name": "Transfer",
      "type": "event"
    },
    {
      "inputs": [
        {
          "internalType": "address",
          "name": "artist",
          "type": "address"
        }
      ],
      "name": "addArtist",
      "outputs": [],
      "stateMutability": "nonpayable",
      "type": "function"
    },
    {
      "inputs": [
        {
          "internalType": "address",
          "name": "to",
          "type": "address"
        },
        {
          "internalType": "uint256",
          "name": "tokenId",
          "type": "uint256"
        }
      ],
      "name": "approve",
      "outputs": [],
      "stateMutability": "nonpayable",
      "type": "function"
    },
    {
      "inputs": [
        {
          "internalType": "address",
          "name": "owner",
          "type": "address"
        }
      ],
      "name": "balanceOf",
      "outputs": [
        {
          "internalType": "uint256",
          "name": "",
          "type": "uint256"
        }
      ],
      "stateMutability": "view",
      "type": "function"
    },
    {
      "inputs": [
        {
          "internalType": "uint256",
          "name": "tokenId",
          "type": "uint256"
        }
      ],
      "name": "getApproved",
      "outputs": [
        {
          "internalType": "address",
          "name": "",
          "type": "address"
        }
      ],
      "stateMutability": "view",
      "type": "function"
    },
    {
      "inputs": [
        {
          "internalType": "address",
          "name": "owner",
          "type": "address"
        },
        {
          "internalType": "address",
          "name": "operator",
          "type": "address"
        }
      ],
      "name": "isApprovedForAll",
      "outputs": [
        {
          "internalType": "bool",
          "name": "",
          "type": "bool"
        }
      ],
      "stateMutability": "view",
      "type": "function"
    },
    {
      "inputs": [],
      "name": "name",
      "outputs": [
        {
          "internalType": "string",
          "name": "",
          "type": "string"
        }
      ],
      "stateMutability": "view",
      "type": "function"
    },
    {
      "inputs": [],
      "name": "owner",
      "outputs": [
        {
          "internalType": "address",
          "name": "",
          "type": "address"
        }
      ],
      "stateMutability": "view",
      "type": "function"
    },
    {
      "inputs": [
        {
          "internalType": "uint256",
          "name": "tokenId",
          "type": "uint256"
        }
      ],
      "name": "ownerOf",
      "outputs": [
        {
          "internalType": "address",
          "name": "",
          "type": "address"
        }
      ],
      "stateMutability": "view",
      "type": "function"
    },
    {
      "inputs": [
        {
          "internalType": "address",
          "name": "artist",
          "type": "address"
        }
      ],
      "name": "removeArtist",
      "outputs": [],
      "stateMutability": "nonpayable",
      "type": "function"
    },
    {
      "inputs": [],
      "name": "renounceOwnership",
      "outputs": [],
      "stateMutability": "nonpayable",
      "type": "function"
    },
    {
      "inputs": [
        {
          "internalType": "uint256",
          "name": "tokenId",
          "type": "uint256"
        },
        {
          "internalType": "uint256",
          "name": "salePrice",
          "type": "uint256"
        }
      ],
      "name": "royaltyInfo",
      "outputs": [
        {
          "internalType": "address",
          "name": "receiver",
          "type": "address"
        },
        {
          "internalType": "uint256",
          "name": "amount",
          "type": "uint256"
        }
      ],
      "stateMutability": "view",
      "type": "function"
    },
    {
      "inputs": [
        {
          "internalType": "address",
          "name": "to",
          "type": "address"
        },
        {
          "internalType": "string",
          "name": "uri",
          "type": "string"
        }
      ],
      "name": "safeMint",
      "outputs": [],
      "stateMutability": "nonpayable",
      "type": "function"
    },
    {
      "inputs": [
        {
          "internalType": "address",
          "name": "from",
          "type": "address"
        },
        {
          "internalType": "address",
          "name": "to",
          "type": "address"
        },
        {
          "internalType": "uint256",
          "name": "tokenId",
          "type": "uint256"
        }
      ],
      "name": "safeTransferFrom",
      "outputs": [],
      "stateMutability": "nonpayable",
      "type": "function"
    },
    {
      "inputs": [
        {
          "internalType": "address",
          "name": "from",
          "type": "address"
        },
        {
          "internalType": "address",
          "name": "to",
          "type": "address"
        },
        {
          "internalType": "uint256",
          "name": "tokenId",
          "type": "uint256"
        },
        {
          "internalType": "bytes",
          "name": "data",
          "type": "bytes"
        }
      ],
      "name": "safeTransferFrom",
      "outputs": [],
      "stateMutability": "nonpayable",
      "type": "function"
    },
    {
      "inputs": [
        {
          "internalType": "address",
          "name": "operator",
          "type": "address"
        },
        {
          "internalType": "bool",
          "name": "approved",
          "type": "bool"
        }
      ],
      "name": "setApprovalForAll",
      "outputs": [],
      "stateMutability": "nonpayable",
      "type": "function"
    },
    {
      "inputs": [
        {
          "internalType": "bytes4",
          "name": "interfaceId",
          "type": "bytes4"
        }
      ],
      "name": "supportsInterface",
      "outputs": [
        {
          "internalType": "bool",
          "name": "",
          "type": "bool"
        }
      ],
      "stateMutability": "view",
      "type": "function"
    },
    {
      "inputs": [],
      "name": "symbol",
      "outputs": [
        {
          "internalType": "string",
          "name": "",
          "type": "string"
        }
      ],
      "stateMutability": "view",
      "type": "function"
    },
    {
      "inputs": [
        {
          "internalType": "uint256",
          "name": "index",
          "type": "uint256"
        }
      ],
      "name": "tokenByIndex",
      "outputs": [
        {
          "internalType": "uint256",
          "name": "",
          "type": "uint256"
        }
      ],
      "stateMutability": "view",
      "type": "function"
    },
    {
      "inputs": [
        {
          "internalType": "address",
          "name": "owner",
          "type": "address"
        },
        {
          "internalType": "uint256",
          "name": "index",
          "type": "uint256"
        }
      ],
      "name": "tokenOfOwnerByIndex",
      "outputs": [
        {
          "internalType": "uint256",
          "name": "",
          "type": "uint256"
        }
      ],
      "stateMutability": "view",
      "type": "function"
    },
    {
      "inputs": [
        {
          "internalType": "uint256",
          "name": "tokenId",
          "type": "uint256"
        }
      ],
      "name": "tokenURI",
      "outputs": [
        {
          "internalType": "string",
          "name": "",
          "type": "string"
        }
      ],
      "stateMutability": "view",
      "type": "function"
    },
    {
      "inputs": [],
      "name": "totalSupply",
      "outputs": [
        {
          "internalType": "uint256",
          "name": "",
          "type": "uint256"
        }
      ],
      "stateMutability": "view",
      "type": "function"
    },
    {
      "inputs": [
        {
          "internalType": "address",
          "name": "from",
          "type": "address"
        },
        {
          "internalType": "address",
          "name": "to",
          "type": "address"
        },
        {
          "internalType": "uint256",
          "name": "tokenId",
          "type": "uint256"
        }
      ],
      "name": "transferFrom",
      "outputs": [],
      "stateMutability": "nonpayable",
      "type": "function"
    },
    {
      "inputs": [
        {
          "internalType": "address",
          "name": "newOwner",
          "type": "address"
        }
      ],
      "name": "transferOwnership",
      "outputs": [],
      "stateMutability": "nonpayable",
      "type": "function"
    },
    {
      "inputs": [
        {
          "internalType": "address",
          "name": "",
          "type": "address"
        }
      ],
      "name": "whitelistedArtists",
      "outputs": [
        {
          "internalType": "bool",
          "name": "",
          "type": "bool"
        }
      ],
      "stateMutability": "view",
      "type": "function"
    }
  ],
  "bytecode": "0x608060405234801562000010575f80fd5b50336040518060400160405280601381526020017f417274204469676974616c2047616c6c657279000000000000000000000000008152506040518060400160405280600681526020016510549513919560d21b815250815f90816200007791906200026d565b5060016200008682826200026d565b5050506001600160a01b038116620000b857604051631e4fbdf760e01b81525f60048201526024015b60405180910390fd5b620000c381620000d8565b50620000d2336101f462000129565b62000339565b600d80546001600160a01b038381166001600160a01b0319831681179093556040519116919082907f8be0079c531659141344cd1fd0a4f28419497f9722a3daafe3b4186f6b6457e0905f90a35050565b6127106001600160601b0382168110156200016a57604051636f483d0960e01b81526001600160601b038316600482015260248101829052604401620000af565b6001600160a01b0383166200019557604051635b6cc80560e11b81525f6004820152602401620000af565b50604080518082019091526001600160a01b039092168083526001600160601b039091166020909201829052600160a01b90910217600b55565b634e487b7160e01b5f52604160045260245ffd5b600181811c90821680620001f857607f821691505b6020821081036200021757634e487b7160e01b5f52602260045260245ffd5b50919050565b601f8211156200026857805f5260205f20601f840160051c81016020851015620002445750805b601f840160051c820191505b8181101562000265575f815560010162000250565b50505b505050565b81516001600160401b03811115620002895762000289620001cf565b620002a1816200029a8454620001e3565b846200021d565b602080601f831160018114620002d7575f8415620002bf5750858301515b5f19600386901b1c1916600185901b17855562000331565b5f85815260208120601f198616915b828110156200030757888601518255948401946001909101908401620002e6565b50858210156200032557878501515f19600388901b60f8161c191681555b505060018460011b0185555b505050505050565b611a2480620003475f395ff3fe608060405234801561000f575f80fd5b5060043610610153575f3560e01c80636352211e116100bf578063a22cb46511610079578063a22cb465146102f3578063b88d4fde14610306578063c87b56dd14610319578063d204c45e1461032c578063e985e9c51461033f578063f2fde38b14610352575f80fd5b80636352211e1461029957806370a08231146102ac578063715018a6146102bf5780638da5cb5b146102c757806395d89b41146102d8578063978d5b76146102e0575f80fd5b80632a55205a116101105780632a55205a146101f95780632f745c591461022b57806342842e0e1461023e5780634d287f2b146102515780634f6ccce71461026457806362b2519014610277575f80fd5b806301ffc9a71461015757806306fdde031461017f578063081812fc14610194578063095ea7b3146101bf57806318160ddd146101d457806323b872dd146101e6575b5f80fd5b61016a610165366004611488565b610365565b60405190151581526020015b60405180910390f35b610187610375565b60405161017691906114f0565b6101a76101a2366004611502565b610404565b6040516001600160a01b039091168152602001610176565b6101d26101cd366004611534565b61042b565b005b6009545b604051908152602001610176565b6101d26101f436600461155c565b61043a565b61020c610207366004611595565b6104c8565b604080516001600160a01b039093168352602083019190915201610176565b6101d8610239366004611534565b61054b565b6101d261024c36600461155c565b6105ae565b6101d261025f3660046115b5565b6105cd565b6101d8610272366004611502565b6105f8565b61016a6102853660046115b5565b600f6020525f908152604090205460ff1681565b6101a76102a7366004611502565b61064d565b6101d86102ba3660046115b5565b610657565b6101d261069c565b600d546001600160a01b03166101a7565b6101876106af565b6101d26102ee3660046115b5565b6106be565b6101d26103013660046115ce565b6106e6565b6101d261031436600461168e565b6106f1565b610187610327366004611502565b610709565b6101d261033a366004611705565b610714565b61016a61034d366004611763565b6107c0565b6101d26103603660046115b5565b6107ed565b5f61036f8261082a565b92915050565b60605f805461038390611794565b80601f01602080910402602001604051908101604052809291908181526020018280546103af90611794565b80156103fa5780601f106103d1576101008083540402835291602001916103fa565b820191905f5260205f20905b8154815290600101906020018083116103dd57829003601f168201915b5050505050905090565b5f61040e8261084e565b505f828152600460205260409020546001600160a01b031661036f565b610436828233610886565b5050565b6001600160a01b03821661046857604051633250574960e11b81525f60048201526024015b60405180910390fd5b5f610474838333610893565b9050836001600160a01b0316816001600160a01b0316146104c2576040516364283d7b60e01b81526001600160a01b038086166004830152602482018490528216604482015260640161045f565b50505050565b5f828152600c6020526040812080548291906001600160a01b03811690600160a01b90046001600160601b03168161051b575050600b546001600160a01b03811690600160a01b90046001600160601b03165b5f6127106105326001600160601b038416896117e0565b61053c91906117f7565b92989297509195505050505050565b5f61055583610657565b82106105865760405163295f44f760e21b81526001600160a01b03841660048201526024810183905260440161045f565b506001600160a01b03919091165f908152600760209081526040808320938352929052205490565b6105c883838360405180602001604052805f8152506106f1565b505050565b6105d56108a7565b6001600160a01b03165f908152600f60205260409020805460ff19166001179055565b5f61060260095490565b821061062a5760405163295f44f760e21b81525f60048201526024810183905260440161045f565b6009828154811061063d5761063d611816565b905f5260205f2001549050919050565b5f61036f8261084e565b5f6001600160a01b038216610681576040516322718ad960e21b81525f600482015260240161045f565b506001600160a01b03165f9081526003602052604090205490565b6106a46108a7565b6106ad5f6108d4565b565b60606001805461038390611794565b6106c66108a7565b6001600160a01b03165f908152600f60205260409020805460ff19169055565b610436338383610925565b6106fc84848461043a565b6104c233858585856109ec565b606061036f82610b14565b335f908152600f602052604090205460ff168061074a57503361073f600d546001600160a01b031690565b6001600160a01b0316145b6107965760405162461bcd60e51b815260206004820152601960248201527f536164656365206f6e61796c692073616e617463696c61722100000000000000604482015260640161045f565b600e80545f91826107a68361182a565b9190505590506107b68382610b8d565b6105c88183610ba6565b6001600160a01b039182165f90815260056020908152604080832093909416825291909152205460ff1690565b6107f56108a7565b6001600160a01b03811661081e57604051631e4fbdf760e01b81525f600482015260240161045f565b610827816108d4565b50565b5f6001600160e01b0319821663152a902d60e11b148061036f575061036f82610bf5565b5f818152600260205260408120546001600160a01b03168061036f57604051637e27328960e01b81526004810184905260240161045f565b6105c88383836001610c19565b5f61089f848484610d1d565b949350505050565b600d546001600160a01b031633146106ad5760405163118cdaa760e01b815233600482015260240161045f565b600d80546001600160a01b038381166001600160a01b0319831681179093556040519116919082907f8be0079c531659141344cd1fd0a4f28419497f9722a3daafe3b4186f6b6457e0905f90a35050565b6001600160a01b03831661094e5760405163a9fbf51f60e01b81525f600482015260240161045f565b6001600160a01b03821661098057604051630b61174360e31b81526001600160a01b038316600482015260240161045f565b6001600160a01b038381165f81815260056020908152604080832094871680845294825291829020805460ff191686151590811790915591519182527f17307eab39ab6107e8899845ad3d59bd9653f200f220920489ca2b5937696c31910160405180910390a3505050565b6001600160a01b0383163b15610b0d57604051630a85bd0160e11b81526001600160a01b0384169063150b7a0290610a2e908890889087908790600401611842565b6020604051808303815f875af1925050508015610a68575060408051601f3d908101601f19168201909252610a659181019061187e565b60015b610acf573d808015610a95576040519150601f19603f3d011682016040523d82523d5f602084013e610a9a565b606091505b5080515f03610ac757604051633250574960e11b81526001600160a01b038516600482015260240161045f565b805160208201fd5b6001600160e01b03198116630a85bd0160e11b14610b0b57604051633250574960e11b81526001600160a01b038516600482015260240161045f565b505b5050505050565b6060610b1f8261084e565b505f610b3560408051602081019091525f815290565b90505f610b4184610de8565b905081515f03610b52579392505050565b805115610b84578181604051602001610b6c929190611899565b60405160208183030381529060405292505050919050565b61089f84610e87565b610436828260405180602001604052805f815250610ef8565b5f828152600660205260409020610bbd828261190b565b506040518281527ff8e1a15aba9398e019f0b49df1a4fde98ee17ae345cb5f6b5e2c27f5033e8ce79060200160405180910390a15050565b5f6001600160e01b0319821663780e9d6360e01b148061036f575061036f82610f0f565b8080610c2d57506001600160a01b03821615155b15610cee575f610c3c8461084e565b90506001600160a01b03831615801590610c685750826001600160a01b0316816001600160a01b031614155b8015610c7b5750610c7981846107c0565b155b15610ca45760405163a9fbf51f60e01b81526001600160a01b038416600482015260240161045f565b8115610cec5783856001600160a01b0316826001600160a01b03167f8c5be1e5ebec7d5bd14f71427d1e84f3dd0314c0f7b2291e5b200ac8c7c3b92560405160405180910390a45b505b50505f90815260046020526040902080546001600160a01b0319166001600160a01b0392909216919091179055565b5f80610d2a858585610f33565b90506001600160a01b038116610d8657610d8184600980545f838152600a60205260408120829055600182018355919091527f6e1540171b6c0c960b71a7020d9f60077f6af931a8bbf590da0223dacf75c7af0155565b610da9565b846001600160a01b0316816001600160a01b031614610da957610da98185611025565b6001600160a01b038516610dc557610dc0846110a2565b61089f565b846001600160a01b0316816001600160a01b03161461089f5761089f8585611149565b5f818152600660205260409020805460609190610e0490611794565b80601f0160208091040260200160405190810160405280929190818152602001828054610e3090611794565b8015610e7b5780601f10610e5257610100808354040283529160200191610e7b565b820191905f5260205f20905b815481529060010190602001808311610e5e57829003601f168201915b50505050509050919050565b6060610e928261084e565b505f610ea860408051602081019091525f815290565b90505f815111610ec65760405180602001604052805f815250610ef1565b80610ed084611197565b604051602001610ee1929190611899565b6040516020818303038152906040525b9392505050565b610f028383611227565b6105c8335f8585856109ec565b5f6001600160e01b03198216632483248360e11b148061036f575061036f82611288565b5f828152600260205260408120546001600160a01b0390811690831615610f5f57610f5f8184866112d7565b6001600160a01b03811615610f9957610f7a5f855f80610c19565b6001600160a01b0381165f90815260036020526040902080545f190190555b6001600160a01b03851615610fc7576001600160a01b0385165f908152600360205260409020805460010190555b5f8481526002602052604080822080546001600160a01b0319166001600160a01b0389811691821790925591518793918516917fddf252ad1be2c89b69c2b068fc378daa952ba7f163c4a11628f55a4df523b3ef91a4949350505050565b5f61102f83610657565b5f838152600860209081526040808320546001600160a01b0388168452600790925290912091925090818314611084575f83815260208281526040808320548584528184208190558352600890915290208290555b5f938452600860209081526040808620869055938552525081205550565b6009545f906110b3906001906119c7565b5f838152600a6020526040812054600980549394509092849081106110da576110da611816565b905f5260205f200154905080600983815481106110f9576110f9611816565b5f918252602080832090910192909255828152600a90915260408082208490558582528120556009805480611130576111306119da565b600190038181905f5260205f20015f9055905550505050565b5f600161115584610657565b61115f91906119c7565b6001600160a01b039093165f908152600760209081526040808320868452825280832085905593825260089052919091209190915550565b60605f6111a38361133b565b60010190505f8167ffffffffffffffff8111156111c2576111c2611607565b6040519080825280601f01601f1916602001820160405280156111ec576020820181803683370190505b5090508181016020015b5f19016f181899199a1a9b1b9c1cb0b131b232b360811b600a86061a8153600a85049450846111f657509392505050565b6001600160a01b03821661125057604051633250574960e11b81525f600482015260240161045f565b5f61125c83835f610893565b90506001600160a01b038116156105c8576040516339e3563760e11b81525f600482015260240161045f565b5f6001600160e01b031982166380ac58cd60e01b14806112b857506001600160e01b03198216635b5e139f60e01b145b8061036f57506301ffc9a760e01b6001600160e01b031983161461036f565b6112e2838383611412565b6105c8576001600160a01b03831661131057604051637e27328960e01b81526004810182905260240161045f565b60405163177e802f60e01b81526001600160a01b03831660048201526024810182905260440161045f565b5f8072184f03e93ff9f4daa797ed6e38ed64bf6a1f0160401b83106113795772184f03e93ff9f4daa797ed6e38ed64bf6a1f0160401b830492506040015b6d04ee2d6d415b85acef810000000083106113a5576d04ee2d6d415b85acef8100000000830492506020015b662386f26fc1000083106113c357662386f26fc10000830492506010015b6305f5e10083106113db576305f5e100830492506008015b61271083106113ef57612710830492506004015b60648310611401576064830492506002015b600a831061036f5760010192915050565b5f6001600160a01b0383161580159061089f5750826001600160a01b0316846001600160a01b0316148061144b575061144b84846107c0565b8061089f5750505f908152600460205260409020546001600160a01b03908116911614919050565b6001600160e01b031981168114610827575f80fd5b5f60208284031215611498575f80fd5b8135610ef181611473565b5f5b838110156114bd5781810151838201526020016114a5565b50505f910152565b5f81518084526114dc8160208601602086016114a3565b601f01601f19169290920160200192915050565b602081525f610ef160208301846114c5565b5f60208284031215611512575f80fd5b5035919050565b80356001600160a01b038116811461152f575f80fd5b919050565b5f8060408385031215611545575f80fd5b61154e83611519565b946020939093013593505050565b5f805f6060848603121561156e575f80fd5b61157784611519565b925061158560208501611519565b9150604084013590509250925092565b5f80604083850312156115a6575f80fd5b50508035926020909101359150565b5f602082840312156115c5575f80fd5b610ef182611519565b5f80604083850312156115df575f80fd5b6115e883611519565b9150602083013580151581146115fc575f80fd5b809150509250929050565b634e487b7160e01b5f52604160045260245ffd5b5f67ffffffffffffffff8084111561163557611635611607565b604051601f8501601f19908116603f0116810190828211818310171561165d5761165d611607565b81604052809350858152868686011115611675575f80fd5b858560208301375f602087830101525050509392505050565b5f805f80608085870312156116a1575f80fd5b6116aa85611519565b93506116b860208601611519565b925060408501359150606085013567ffffffffffffffff8111156116da575f80fd5b8501601f810187136116ea575f80fd5b6116f98782356020840161161b565b91505092959194509250565b5f8060408385031215611716575f80fd5b61171f83611519565b9150602083013567ffffffffffffffff81111561173a575f80fd5b8301601f8101851361174a575f80fd5b6117598582356020840161161b565b9150509250929050565b5f8060408385031215611774575f80fd5b61177d83611519565b915061178b60208401611519565b90509250929050565b600181811c908216806117a857607f821691505b6020821081036117c657634e487b7160e01b5f52602260045260245ffd5b50919050565b634e487b7160e01b5f52601160045260245ffd5b808202811582820484141761036f5761036f6117cc565b5f8261181157634e487b7160e01b5f52601260045260245ffd5b500490565b634e487b7160e01b5f52603260045260245ffd5b5f6001820161183b5761183b6117cc565b5060010190565b6001600160a01b03858116825284166020820152604081018390526080606082018190525f90611874908301846114c5565b9695505050505050565b5f6020828403121561188e575f80fd5b8151610ef181611473565b5f83516118aa8184602088016114a3565b8351908301906118be8183602088016114a3565b01949350505050565b601f8211156105c857805f5260205f20601f840160051c810160208510156118ec5750805b601f840160051c820191505b81811015610b0d575f81556001016118f8565b815167ffffffffffffffff81111561192557611925611607565b611939816119338454611794565b846118c7565b602080601f83116001811461196c575f84156119555750858301515b5f19600386901b1c1916600185901b178555610b0b565b5f85815260208120601f198616915b8281101561199a5788860151825594840194600190910190840161197b565b50858210156119b757878501515f19600388901b60f8161c191681555b5050505050600190811b01905550565b8181038181111561036f5761036f6117cc565b634e487b7160e01b5f52603160045260245ffdfea26469706673582212207bc77b693c958aa247478cf7ad8156c079cdd63f5ee40da6bb6d4b47378f8eeb64736f6c63430008180033",
  "linkReferences": {},
  "deployedLinkReferences": {}
}